:100000000C9436000C945E000C945E000C945E0020
:100010000C945E000C945E000C945E000C945E00E8
:100020000C945E000C945E000C945E000C945E00D8
:100030000C945E000C945E000C945E000C945E00C8
:100040000C94F2020C945E000C94C0020C949A0280
:100050000C945E000C945E000C945E000C945E00A8
:100060000C945E000C945E006D03E20511241FBE2B
:10007000CFEFD8E0DEBFCDBF22E0A8EAB1E001C0FB
:100080001D92A737B207E1F711E0A0E0B1E0ECE67E
:10009000F0E102C005900D92A83AB107D9F710E03F
:1000A000C5E3D0E004C02197FE010E943106C433AD
:1000B000D107C9F70E94BD030C9429080C940000D5
:1000C000AF92BF92CF92DF92EF92FF920F931F9366
:1000D000CF93DF936C017B018B01040F151FEB01A4
:1000E0005E01AE18BF08C017D10759F06991D6015B
:1000F000ED91FC910190F081E02DC6010995892BCD
:1001000079F7C501DF91CF911F910F91FF90EF908B
:10011000DF90CF90BF90AF900895FC01538D448D38
:10012000252F30E0842F90E0821B930B541710F0A2
:10013000CF96089501970895FC01918D828D9817AF
:1001400061F0A28DAE0FBF2FB11D5D968C91928D87
:100150009F5F9F73928F90E008958FEF9FEF0895B8
:10016000FC01918D828D981731F0828DE80FF11D81
:10017000858D90E008958FEF9FEF0895FC01918D9C
:10018000228D892F90E0805C9F4F821B91098F7395
:100190009927089582EB91E00E94BE0021E0892B0F
:1001A00009F420E0822F089580E090E0892B29F067
:1001B0000E94CA0081110C9400000895FC01A48DD6
:1001C000A80FB92FB11DA35ABF4F2C91848D90E079
:1001D00001968F739927848FA689B7892C93A0895C
:1001E000B1898C91837080648C93938D848D9813E6
:1001F00006C00288F389E02D80818F7D8083089579
:10020000EF92FF920F931F93CF93DF93EC0181E066
:10021000888F9B8D8C8D98131AC0E889F98980810D
:1002200085FF15C09FB7F894EE89FF896083E88940
:10023000F98980818370806480839FBF81E090E032
:10024000DF91CF911F910F91FF90EF900895F62EBF
:100250000B8D10E00F5F1F4F0F731127E02E8C8D59
:100260008E110CC00FB607FCFACFE889F98980819E
:1002700085FFF5CFCE010E94DE00F1CFEB8DEC0FB4
:10028000FD2FF11DE35AFF4FF0829FB7F8940B8FBB
:10029000EA89FB8980818062CFCFCF93DF93EC0125
:1002A000888D8823B9F0AA89BB89E889F9898C915E
:1002B00085FD03C0808186FD0DC00FB607FCF7CF1A
:1002C0008C9185FFF2CF808185FFEDCFCE010E941A
:1002D000DE00E9CFDF91CF9108953FB7F894809188
:1002E000AE019091AF01A091B001B091B10126B5DE
:1002F000A89B05C02F3F19F00196A11DB11D3FBF5E
:10030000BA2FA92F982F8827BC01CD01620F711D2C
:10031000811D911D42E0660F771F881F991F4A9526
:10032000D1F708958F929F92AF92BF92CF92DF92B2
:10033000EF92FF920E946D014B015C0188EEC82E86
:1003400083E0D82EE12CF12C0E946D016819790907
:100350008A099B09683E734081059105A8F321E055
:10036000C21AD108E108F10888EE880E83E0981ED1
:10037000A11CB11CC114D104E104F10429F7FF90C0
:10038000EF90DF90CF90BF90AF909F908F900895A7
:1003900030E020E0DC0114964D915C911597241714
:1003A0003507A8F4ED91FC91309771F41092A801F3
:1003B000E8EAF1E040815091C00055FFFCCF409346
:1003C000C6002F5F3F4FE6CFE20FF31FF3CF089534
:1003D0000F931F93CF93DF93EC018881998100974E
:1003E00059F02A813B812617370730F081E0DF91F1
:1003F000CF911F910F9108958B016F5F7F4F0E94E6
:100400005C07009759F0998388831B830A832C81AA
:100410003D81232B59F7FC011082E8CF80E0E7CF24
:10042000CF93DF93EC0188819981009711F00E94AE
:10043000D306198218821D821C821B821A82DF91C8
:10044000CF910895EF92FF920F931F93CF93DF9375
:100450008C017B01FB0101900020E9F73197E61B3D
:10046000F70BD1F0DC011496CD91DC91CE0FDF1F9C
:10047000BE010E94E8018823B9F0F8012081318192
:1004800084819581B701820F931F0E942208D801B1
:100490001596DC93CE931497C801DF91CF911F91ED
:1004A0000F91FF90EF900895C8010E941002F4CFC1
:1004B000EF92FF920F931F93CF93DF93EC0119827A
:1004C00018821B821A821D821C828617970719F1D7
:1004D000FB010081118101151105E9F0E480F5802F
:1004E000B7010E94E801811109C0CE01DF91CF91CF
:1004F0001F910F91FF90EF900C941002FD82EC82FF
:10050000B80188819981DF91CF911F910F91FF9060
:10051000EF900C942208DF91CF911F910F91FF90E3
:10052000EF900895FC0180819181009711F00C9467
:10053000D30608951F920F920FB60F9211242F9396
:100540003F934F935F936F937F938F939F93AF935B
:10055000BF93EF93FF9382EB91E00E94DE00FF9147
:10056000EF91BF91AF919F918F917F916F915F912B
:100570004F913F912F910F900FBE0F901F901895A4
:100580001F920F920FB60F9211242F938F939F9368
:10059000EF93FF93E091C201F091C3018081E0915C
:1005A000C801F091C90182FD1BC090818091CB01EF
:1005B0008F5F8F732091CC01821741F0E091CB01C6
:1005C000F0E0EE54FE4F958F8093CB01FF91EF91B9
:1005D0009F918F912F910F900FBE0F901F901895A4
:1005E0008081F4CF1F920F920FB60F9211242F9398
:1005F0003F938F939F93AF93BF938091AA01909164
:10060000AB01A091AC01B091AD013091A90123E003
:10061000230F2D3758F50196A11DB11D2093A90177
:100620008093AA019093AB01A093AC01B093AD016C
:100630008091AE019091AF01A091B001B091B10154
:100640000196A11DB11D8093AE019093AF01A093BF
:10065000B001B093B101BF91AF919F918F913F9144
:100660002F910F900FBE0F901F90189526E8230F23
:100670000296A11DB11DD2CFEF92FF920F931F934F
:10068000CF93DF93EC017B01198218821B821A82BF
:100690001D821C82FB0101900020E9F731978F0138
:1006A000061B170BB8010E94E801811109C0CE0199
:1006B000DF91CF911F910F91FF90EF900C9410025A
:1006C0001D830C83B70188819981DF91CF911F91A0
:1006D0000F91FF90EF900C942208E2EBF1E013826F
:1006E000128288EE93E0A0E0B0E084839583A68335
:1006F000B7838AE091E09183808385EC90E09587D1
:10070000848784EC90E09787868780EC90E0918BDB
:10071000808B81EC90E0938B828B82EC90E0958BC8
:10072000848B86EC90E0978B868B118E128E138EC5
:10073000148E68E171E08DE692E00E943C0363E272
:1007400071E087E692E00E943C036CE271E081E692
:1007500092E00E943C0367E371E08BE592E00E9427
:100760003C0363E471E085E592E00E943C036FE4A2
:1007700071E08FE492E00C943C03CF93DF93CDB70C
:10078000DEB72C970FB6F894DEBF0FBECDBF7894BE
:1007900084B5826084BD84B5816084BD85B5826086
:1007A00085BD85B5816085BD80916E008160809337
:1007B0006E001092810080918100826080938100A0
:1007C00080918100816080938100809180008160B0
:1007D000809380008091B10084608093B10080910B
:1007E000B00081608093B00080917A008460809333
:1007F0007A0080917A00826080937A0080917A00FA
:10080000816080937A0080917A00806880937A007A
:100810001092C100E091C201F091C30182E0808397
:10082000E091BE01F091BF011082E091C001F09112
:10083000C1018FEC80831092CA01E091C601F09152
:10084000C70196E09083E091C401F091C5018081D9
:1008500080618083E091C401F091C501808188604E
:100860008083E091C401F091C5018081806880831C
:10087000E091C401F091C50180818F7D808388E083
:100880008093C1009093C20000E010E06DE672E03A
:10089000CE0107960E9458026CE571E0CE010796E2
:1008A0000E94220262E671E00E942202BC01CE0197
:1008B00001960E945802CE0101960E94C801CE0105
:1008C00001960E949202CE0107960E94920267E66C
:1008D00072E0CE0107960E94580264E671E0CE01F4
:1008E00007960E94220262E671E00E942202BC0189
:1008F000CE0101960E945802CE0101960E94C801C5
:10090000CE0101960E949202CE0107960E949202A9
:1009100061E672E0CE0107960E9458026EE671E031
:10092000CE0107960E94220262E671E00E94220236
:10093000BC01CE0101960E945802CE0101960E9490
:10094000C801CE0101960E949202CE0107960E9434
:1009500092026BE572E0CE0107960E94580268E7AA
:1009600071E0CE0107960E94220262E671E00E94C9
:100970002202BC01CE0101960E945802CE010196CE
:100980000E94C801CE0101960E949202CE010796F4
:100990000E94920265E572E0CE0107960E9458021D
:1009A0006DE771E0CE0107960E94220262E671E0D7
:1009B0000E942202BC01CE0101960E945802CE0183
:1009C00001960E94C801CE0101960E949202CE01BA
:1009D00007960E9492026FE472E0CE0107960E9491
:1009E000580267E871E0CE0107960E9422026CE887
:1009F00071E00E942202BC01CE0101960E945802C1
:100A0000CE0101960E94C801CE0101960E94920279
:100A1000CE0107960E9492020E9492016DE672E05A
:100A2000CE0107960E9458026EE871E0CE0107964B
:100A30000E94220262E671E00E942202BC01CE0105
:100A400001960E945802CE0101960E94C801CE0173
:100A500001960E949202CE0107960E94920267E6DA
:100A600072E0CE0107960E94580264E971E0CE015F
:100A700007960E94220262E671E00E942202BC01F7
:100A8000CE0101960E945802CE0101960E94C80133
:100A9000CE0101960E949202CE0107960E94920218
:100AA00061E672E0CE0107960E9458026EE671E0A0
:100AB000CE0107960E94220262E671E00E942202A5
:100AC000BC01CE0101960E945802CE0101960E94FF
:100AD000C801CE0101960E949202CE0107960E94A3
:100AE00092026BE572E0CE0107960E9458026EE911
:100AF00071E0CE0107960E94220262E671E00E9438
:100B00002202BC01CE0101960E945802CE0101963C
:100B10000E94C801CE0101960E949202CE01079662
:100B20000E94920265E572E0CE0107960E9458028B
:100B30006DE771E0CE0107960E94220262E671E045
:100B40000E942202BC01CE0101960E945802CE01F1
:100B500001960E94C801CE0101960E949202CE0128
:100B600007960E9492026FE472E0CE0107960E94FF
:100B7000580263EA71E0CE0107960E9422026CE8F7
:100B800071E00E942202BC01CE0101960E9458022F
:100B9000CE0101960E94C801CE0101960E949202E8
:100BA000CE0107960E9492020E9492010115110542
:100BB00009F46CCE0E94CA00882309F467CE0E9413
:100BC000000064CE8FE492E00E94920285E592E0FC
:100BD0000E9492028BE592E00E94920281E692E0EE
:100BE0000E94920287E692E00E9492028DE692E0D5
:100BF0000C9492022F923F924F925F926F927F924B
:100C00008F929F92AF92BF92CF92DF92EF92FF921C
:100C10000F931F93CF93DF93CDB7DEB7CA1BDB0BC8
:100C20000FB6F894DEBF0FBECDBF09942A8839886D
:100C300048885F846E847D848C849B84AA84B98474
:100C4000C884DF80EE80FD800C811B81AA81B98180
:100C5000CE0FD11D0FB6F894DEBF0FBECDBFED0194
:100C60000895EE0FFF1F0590F491E02D09940F9366
:100C70001F93CF93DF938230910510F482E090E0D0
:100C8000E0917502F091760230E020E0B0E0A0E063
:100C9000309799F42115310509F44AC0281B390B06
:100CA00024303105D8F58A819B816115710589F160
:100CB000FB0193838283FE0111C040815181028137
:100CC000138148175907E0F04817590799F410970E
:100CD00061F012960C93129713961C933296CF01E3
:100CE000DF91CF911F910F9108950093750210939A
:100CF0007602F4CF2115310551F04217530738F031
:100D0000A901DB019A01BD01DF01F801C1CFEF01AB
:100D1000F9CF9093760280937502CDCFFE01E20F5A
:100D2000F31F819391932250310939832883D7CFC0
:100D30002091730230917402232B41F4209102011F
:100D400030910301309374022093730220910001CB
:100D5000309101012115310541F42DB73EB7409185
:100D6000040150910501241B350BE0917302F091B1
:100D70007402E217F307A0F42E1B3F0B2817390764
:100D800078F0AC014E5F5F4F2417350748F04E0FE7
:100D90005F1F5093740240937302819391939FCF8E
:100DA000F0E0E0E09CCFCF93DF930097E9F0FC0107
:100DB000329713821282A0917502B0917602ED01F2
:100DC00030E020E01097A1F420813181820F931F41
:100DD00020917302309174022817390709F061C01D
:100DE000F0937402E0937302DF91CF910895EA01CA
:100DF000CE17DF07E8F54A815B819E014115510559
:100E0000B1F7E901FB83EA8349915991C40FD51FDA
:100E1000EC17FD0761F4808191810296840F951F84
:100E2000E90199838883828193819B838A83F0E09F
:100E3000E0E012968D919C9113970097B9F52D9152
:100E40003C911197CD010296820F931F209173025E
:100E5000309174022817390739F6309751F51092FE
:100E6000760210927502B0937402A0937302BCCF05
:100E7000D383C28340815181840F951FC817D9073E
:100E800061F44E5F5F4F88819981480F591F5183EC
:100E900040838A819B81938382832115310509F0E8
:100EA000B0CFF0937602E09375029ECFFD01DC0196
:100EB000C0CF13821282D7CFB0E0A0E0E2E6F7E025
:100EC0000C94FC058C01009751F4CB010E9437066D
:100ED0008C01C801CDB7DEB7E0E10C941806FC0127
:100EE000E60FF71F9C0122503109E217F30708F4BF
:100EF0009DC0D901CD91DC911197C617D70798F005
:100F0000C530D10530F3CE0104978617970708F353
:100F1000C61BD70B2297C193D1936D937C93CF01BE
:100F20000E94D306D6CF5B01AC1ABD0A4C018C0ED1
:100F30009D1EA0917502B0917602512C412CF12C8E
:100F4000E12C109731F5809173029091740288150D
:100F5000990509F05CC04616570608F058C0809104
:100F6000000190910101009741F48DB79EB7409127
:100F7000040150910501841B950BE817F90708F04F
:100F800055C0F0937402E0937302F901718360839A
:100F9000A0CF8D919C91119712966C9012971396F9
:100FA0007C901397A815B90559F56C0142E0C40E61
:100FB000D11CCA14DB0420F1AC014A195B09DA0127
:100FC0001296159780F06282738251834083D90113
:100FD0006D937C93E114F10471F0D7011396FC93A7
:100FE000EE93129776CF22968C0F9D1FF901918375
:100FF0008083F301EFCFF0937602E093750269CF1F
:101000004816590608F42C017D01D3019ACFCB0173
:101010000E9437067C01009749F0AE01B8010E949A
:101020001908C8010E94D306870153CF10E000E0E1
:1010300050CFFB01DC0102C001900D9241505040A5
:10104000D8F70895FB01DC0101900D920020E1F733
:10105000089510E0C5E3D0E004C0FE010E9431060F
:0C1060002196C633D107C9F7F894FFCFE2
:10106C0000007702800000000000000160008D008D
:10107C004D01BE009C00B0004D6F64756C654E61F7
:10108C006D65004D6F64756C6549440052657369FC
:10109C0073746F7249440051747952657369737437
:1010AC006F7200436170616369746F7249440051DF
:1010BC007479436170616369746F72003A204142C4
:1010CC0053002D003A20504E3032393435003A203E
:1010DC004D415432313233003A203231003A204DF6
:1010EC00414531323435003A2033300021003A206A
:1010FC00454355003A20504E3032393132003A20B7
:08110C003135003A20323000B9
:00000001FF
